{
  "contractName": "BikeCoin",
  "abi": [
    {
      "constant": true,
      "inputs": [
        {
          "name": "",
          "type": "uint256"
        }
      ],
      "name": "rentState",
      "outputs": [
        {
          "name": "",
          "type": "uint8"
        }
      ],
      "payable": false,
      "stateMutability": "view",
      "type": "function"
    },
    {
      "constant": true,
      "inputs": [
        {
          "name": "",
          "type": "address"
        }
      ],
      "name": "registerState",
      "outputs": [
        {
          "name": "",
          "type": "bool"
        }
      ],
      "payable": false,
      "stateMutability": "view",
      "type": "function"
    },
    {
      "constant": true,
      "inputs": [],
      "name": "owner",
      "outputs": [
        {
          "name": "",
          "type": "address"
        }
      ],
      "payable": false,
      "stateMutability": "view",
      "type": "function"
    },
    {
      "constant": true,
      "inputs": [
        {
          "name": "",
          "type": "address"
        }
      ],
      "name": "memberRent",
      "outputs": [
        {
          "name": "add",
          "type": "address"
        },
        {
          "name": "name",
          "type": "string"
        },
        {
          "name": "age",
          "type": "uint256"
        },
        {
          "name": "sex",
          "type": "uint256"
        },
        {
          "name": "id",
          "type": "uint256"
        },
        {
          "name": "pay",
          "type": "bool"
        }
      ],
      "payable": false,
      "stateMutability": "view",
      "type": "function"
    },
    {
      "constant": true,
      "inputs": [],
      "name": "rentPrice",
      "outputs": [
        {
          "name": "",
          "type": "uint256"
        }
      ],
      "payable": false,
      "stateMutability": "view",
      "type": "function"
    },
    {
      "inputs": [],
      "payable": true,
      "stateMutability": "payable",
      "type": "constructor"
    },
    {
      "payable": true,
      "stateMutability": "payable",
      "type": "fallback"
    },
    {
      "constant": false,
      "inputs": [
        {
          "name": "_name",
          "type": "string"
        },
        {
          "name": "_age",
          "type": "uint256"
        },
        {
          "name": "_sex",
          "type": "uint256"
        }
      ],
      "name": "register",
      "outputs": [
        {
          "name": "",
          "type": "bool"
        }
      ],
      "payable": false,
      "stateMutability": "nonpayable",
      "type": "function"
    },
    {
      "constant": false,
      "inputs": [
        {
          "name": "_id",
          "type": "uint256"
        },
        {
          "name": "_location",
          "type": "string"
        }
      ],
      "name": "rentBike",
      "outputs": [],
      "payable": false,
      "stateMutability": "nonpayable",
      "type": "function"
    },
    {
      "constant": false,
      "inputs": [
        {
          "name": "_id",
          "type": "uint256"
        }
      ],
      "name": "returnBike",
      "outputs": [
        {
          "name": "",
          "type": "uint256"
        }
      ],
      "payable": false,
      "stateMutability": "nonpayable",
      "type": "function"
    },
    {
      "constant": false,
      "inputs": [],
      "name": "pay",
      "outputs": [
        {
          "name": "",
          "type": "bool"
        }
      ],
      "payable": true,
      "stateMutability": "payable",
      "type": "function"
    },
    {
      "constant": true,
      "inputs": [
        {
          "name": "_add",
          "type": "address"
        }
      ],
      "name": "queryRent",
      "outputs": [
        {
          "components": [
            {
              "name": "location",
              "type": "string"
            },
            {
              "name": "rentAddress",
              "type": "address"
            },
            {
              "name": "rentStartTime",
              "type": "uint256"
            },
            {
              "name": "rentEndTime",
              "type": "uint256"
            },
            {
              "name": "price",
              "type": "uint256"
            }
          ],
          "name": "",
          "type": "tuple"
        }
      ],
      "payable": false,
      "stateMutability": "view",
      "type": "function"
    },
    {
      "constant": true,
      "inputs": [
        {
          "name": "_add",
          "type": "address"
        }
      ],
      "name": "queryMember",
      "outputs": [
        {
          "name": "add",
          "type": "address"
        },
        {
          "name": "name",
          "type": "string"
        },
        {
          "name": "age",
          "type": "uint256"
        },
        {
          "name": "sex",
          "type": "uint256"
        },
        {
          "name": "id",
          "type": "uint256"
        }
      ],
      "payable": false,
      "stateMutability": "view",
      "type": "function"
    },
    {
      "constant": true,
      "inputs": [],
      "name": "contract_balance",
      "outputs": [
        {
          "name": "",
          "type": "uint256"
        }
      ],
      "payable": false,
      "stateMutability": "view",
      "type": "function"
    }
  ],
  "bytecode": "0x608060405260008054600160a060020a03191633179055670de0b6b3a7640000600155611143806100316000396000f3fe6080604052600436106100b95763ffffffff7c0100000000000000000000000000000000000000000000000000000000600035041663057440d381146100bb57806309d70c24146100e65780631b9265b8146101065780632cae4ef71461011b5780633c05539814610148578063603af4e6146101685780638da5cb5b1461019557806390a9f837146101b7578063a56a91c5146101d7578063a8b861e4146101f7578063b4b81bf314610228578063f8af64ed1461025a575b005b3480156100c757600080fd5b506100d061026f565b6040516100dd919061102f565b60405180910390f35b3480156100f257600080fd5b506100b9610101366004610c1b565b6102ad565b61010e610440565b6040516100dd9190610f82565b34801561012757600080fd5b5061013b610136366004610bfd565b61053b565b6040516100dd9190610f90565b34801561015457600080fd5b5061010e610163366004610b73565b610550565b34801561017457600080fd5b50610188610183366004610b73565b610565565b6040516100dd919061101e565b3480156101a157600080fd5b506101aa610668565b6040516100dd9190610eba565b3480156101c357600080fd5b5061010e6101d2366004610b99565b610677565b3480156101e357600080fd5b506100d06101f2366004610bfd565b61078d565b34801561020357600080fd5b50610217610212366004610b73565b610821565b6040516100dd959493929190610ece565b34801561023457600080fd5b50610248610243366004610b73565b610912565b6040516100dd96959493929190610f21565b34801561026657600080fd5b506100d06109e2565b60008054600160a060020a031633146102a65760405160e560020a62461bcd02815260040161029d9061100e565b60405180910390fd5b5030315b90565b3360009081526004602052604090205460ff1615156001146102e45760405160e560020a62461bcd02815260040161029d90610fbe565b60008281526002602052604081205460ff16600181111561030157fe5b146103215760405160e560020a62461bcd02815260040161029d90610fce565b3360009081526003602052604090206005015460ff16151560011461035b5760405160e560020a62461bcd02815260040161029d90610ffe565b3360008181526003602090815260408083206004810187905560058101805460ff19169055815160a081018352868152808401959095524285830152606085018490526080850184905286845260060182529091208251805191926103c5928492909101906109e8565b506020828101516001838101805473ffffffffffffffffffffffffffffffffffffffff1916600160a060020a0390931692909217909155604080850151600280860191909155606086015160038601556080909501516004909401939093556000868152939091529120805460ff1916828002179055505050565b3360009081526003602052604081206005015460ff16156104765760405160e560020a62461bcd02815260040161029d90610fee565b33600090815260036020908152604080832060048082015485526006909101909252909120015434146104be5760405160e560020a62461bcd02815260040161029d90610fde565b33600090815260036020908152604080832060058101805460ff19166001179055600481018490558380526006019091528120906104fc8282610a66565b506001818101805473ffffffffffffffffffffffffffffffffffffffff1916905560006002830181905560038301819055600490920191909155905090565b60026020526000908152604090205460ff1681565b60046020526000908152604090205460ff1681565b61056d610aad565b600160a060020a0382166000908152600360209081526040808320600481015480855260069091018352928190208151815460026001821615610100026000190190911604601f8101859004909402810160c090810190935260a0810184815290939192849284918401828280156106265780601f106105fb57610100808354040283529160200191610626565b820191906000526020600020905b81548152906001019060200180831161060957829003601f168201915b50505091835250506001820154600160a060020a0316602082015260028201546040820152600382015460608201526004909101546080909101529392505050565b600054600160a060020a031681565b3360009081526004602052604081205460ff16156106aa5760405160e560020a62461bcd02815260040161029d90610fae565b6040805160c08101825233808252602080830188815283850188905260608401879052600060808501819052600160a0860181905293815260038352949094208351815473ffffffffffffffffffffffffffffffffffffffff1916600160a060020a039091161781559351805193949361072b9385019291909101906109e8565b50604082810151600283015560608301516003830155608083015160048084019190915560a0909301516005909201805492151560ff199384161790553360009081526020939093529091208054909116600190811790915590509392505050565b3360009081526003602052604081206004015482146107c15760405160e560020a62461bcd02815260040161029d90610f9e565b503360009081526003602081815260408084209484526006909401815283832042928101839055600280820154600180549190950390810260049093019290925590915292909120805460ff1916905554670de0b6b3a764000091020490565b600160a060020a0381811660009081526003602090815260408083208054600191820180548451600261010095831615959095026000190190911693909304601f8101869004860284018601909452838352951694606094938493849392918301828280156108d15780601f106108a6576101008083540402835291602001916108d1565b820191906000526020600020905b8154815290600101906020018083116108b457829003601f168201915b505050600160a060020a039098166000908152600360208190526040909120600281015491810154600490910154989a939950909790965094509092505050565b6003602090815260009182526040918290208054600180830180548651600261010094831615949094026000190190911692909204601f8101869004860283018601909652858252600160a060020a039092169492939092908301828280156109bc5780601f10610991576101008083540402835291602001916109bc565b820191906000526020600020905b81548152906001019060200180831161099f57829003601f168201915b505050506002830154600384015460048501546005909501549394919390925060ff1686565b60015481565b828054600181600116156101000203166002900490600052602060002090601f016020900481019282601f10610a2957805160ff1916838001178555610a56565b82800160010185558215610a56579182015b82811115610a56578251825591602001919060010190610a3b565b50610a62929150610ae6565b5090565b50805460018160011615610100020316600290046000825580601f10610a8c5750610aaa565b601f016020900490600052602060002090810190610aaa9190610ae6565b50565b60a060405190810160405280606081526020016000600160a060020a031681526020016000815260200160008152602001600081525090565b6102aa91905b80821115610a625760008155600101610aec565b6000610b0c8235611090565b9392505050565b6000601f82018313610b2457600080fd5b8135610b37610b3282611064565b61103d565b91508082526020830160208301858383011115610b5357600080fd5b610b5e8382846110c3565b50505092915050565b6000610b0c82356102aa565b600060208284031215610b8557600080fd5b6000610b918484610b00565b949350505050565b600080600060608486031215610bae57600080fd5b833567ffffffffffffffff811115610bc557600080fd5b610bd186828701610b13565b9350506020610be286828701610b67565b9250506040610bf386828701610b67565b9150509250925092565b600060208284031215610c0f57600080fd5b6000610b918484610b67565b60008060408385031215610c2e57600080fd5b6000610c3a8585610b67565b925050602083013567ffffffffffffffff811115610c5757600080fd5b610c6385828601610b13565b9150509250929050565b610c7681611090565b82525050565b610c768161109b565b610c76816110b8565b6000610c998261108c565b808452610cad8160208601602086016110cf565b610cb6816110ff565b9093016020019392505050565b601381527f596f7520686176656e27742072656e7465642000000000000000000000000000602082015260400190565b601081527f796f752068616420726567697374657200000000000000000000000000000000602082015260400190565b600c81527f6e6f742072656769737465720000000000000000000000000000000000000000602082015260400190565b600f81527f796f7520686176652072656e7465640000000000000000000000000000000000602082015260400190565b600981527f706179206572726f720000000000000000000000000000000000000000000000602082015260400190565b600c81527f796f752068617665207061790000000000000000000000000000000000000000602082015260400190565b601781527f596f75206861766520756e7061696420616d6f756e7420000000000000000000602082015260400190565b600981527f6e6f74206f776e65720000000000000000000000000000000000000000000000602082015260400190565b805160a080845260009190840190610e5b8282610c8e565b9150506020830151610e706020860182610c6d565b506040830151610e836040860182610eb1565b506060830151610e966060860182610eb1565b506080830151610ea96080860182610eb1565b509392505050565b610c76816102aa565b60208101610ec88284610c6d565b92915050565b60a08101610edc8288610c6d565b8181036020830152610eee8187610c8e565b9050610efd6040830186610eb1565b610f0a6060830185610eb1565b610f176080830184610eb1565b9695505050505050565b60c08101610f2f8289610c6d565b8181036020830152610f418188610c8e565b9050610f506040830187610eb1565b610f5d6060830186610eb1565b610f6a6080830185610eb1565b610f7760a0830184610c7c565b979650505050505050565b60208101610ec88284610c7c565b60208101610ec88284610c85565b60208082528101610ec881610cc3565b60208082528101610ec881610cf3565b60208082528101610ec881610d23565b60208082528101610ec881610d53565b60208082528101610ec881610d83565b60208082528101610ec881610db3565b60208082528101610ec881610de3565b60208082528101610ec881610e13565b60208082528101610b0c8184610e43565b60208101610ec88284610eb1565b60405181810167ffffffffffffffff8111828210171561105c57600080fd5b604052919050565b600067ffffffffffffffff82111561107b57600080fd5b506020601f91909101601f19160190565b5190565b6000610ec8826110ac565b151590565b600060028210610a6257fe5b600160a060020a031690565b6000610ec8826110a0565b82818337506000910152565b60005b838110156110ea5781810151838201526020016110d2565b838111156110f9576000848401525b50505050565b601f01601f19169056fea265627a7a7230582010620dd52f97fdca366d242a56ddac6de0597fe5bcab9dd0025e4fe84273b9646c6578706572696d656e74616cf50037",
  "source": "pragma solidity 0.5.0 ;\r\npragma experimental ABIEncoderV2;\r\n\r\ncontract BikeCoin\r\n{\r\n    \r\n    address payable public owner ;\r\n    uint public rentPrice ;\r\n    enum State  {notRented , Rented}  \r\n    \r\n    struct Member{\r\n        address add ; //會員地址\r\n        string name ; //會員姓名\r\n        uint age ; //會員年齡\r\n        uint sex ; //會員性別\r\n        uint id ;  //租借腳踏車編號\r\n        bool pay ; //是否付款\r\n        mapping(uint => bike) bikes; //腳踏車詳細資訊\r\n    }\r\n    \r\n    struct bike{\r\n        string location ; //租借地址\r\n        address rentAddress; //租借帳戶EOA地址\r\n        uint rentStartTime;  //租借時間\r\n        uint rentEndTime;  //還車時間\r\n        uint price ; // 租借總費用\r\n    }\r\n    \r\n    mapping(uint => State) public  rentState ; //腳踏出租借狀態\r\n    mapping(address => Member) public memberRent ; //會員詳細資訊\r\n    mapping(address => bool) public registerState ; //註冊狀態\r\n    \r\n    modifier isRegister(){\r\n        require(registerState[msg.sender] == false , \"you had register\");\r\n        _;\r\n    }\r\n    \r\n      modifier onlyOwner(){\r\n        require(owner == msg.sender , \"not owner\");\r\n        _;\r\n    }\r\n    constructor() public payable{\r\n        owner = msg.sender ;\r\n        rentPrice = 1 ether;\r\n    }\r\n    \r\n    function register(string memory _name , uint _age , uint _sex) public isRegister() returns(bool){\r\n        \r\n        memberRent[msg.sender] = Member(msg.sender , _name , _age , _sex , 0 , true);\r\n        registerState[msg.sender] = true ;\r\n        return true ;\r\n    } \r\n    \r\n    \r\n    function rentBike(uint _id , string memory _location) public{\r\n        \r\n        require(registerState[msg.sender] == true , \"not register\");\r\n        require(rentState[_id] == State.notRented ,\"you have rented\");\r\n        require(memberRent[msg.sender].pay == true , \"You have unpaid amount \");\r\n        \r\n        memberRent[msg.sender].id = _id ;\r\n        memberRent[msg.sender].pay = false;\r\n        memberRent[msg.sender].bikes[_id] = bike(_location , msg.sender , now , 0 , 0);\r\n        \r\n        rentState[_id] = State.Rented;\r\n    }\r\n    \r\n    \r\n    function returnBike(uint _id) public  returns(uint){\r\n        require(memberRent[msg.sender].id == _id , \"You haven't rented \");\r\n        memberRent[msg.sender].bikes[_id].rentEndTime = now ;\r\n        \r\n        uint time = memberRent[msg.sender].bikes[_id].rentEndTime - memberRent[msg.sender].bikes[_id].rentStartTime ;\r\n        memberRent[msg.sender].bikes[_id].price = time * rentPrice ;\r\n        rentState[_id] = State.notRented ;\r\n        return (time * rentPrice) / 1 ether;\r\n    }\r\n    \r\n    function pay() public payable returns(bool){\r\n        require(memberRent[msg.sender].pay == false , \"you have pay\");\r\n        require(msg.value == memberRent[msg.sender].bikes[memberRent[msg.sender].id].price,\"pay error\");\r\n       // address(this).transfer(msg.value);\r\n        memberRent[msg.sender].pay = true ;\r\n        delete memberRent[msg.sender].id ;\r\n        delete memberRent[msg.sender].bikes[memberRent[msg.sender].id];\r\n        return true ;\r\n    }\r\n    \r\n    function queryRent(address _add) public view returns(bike memory){\r\n        uint id = memberRent[_add].id ;\r\n        return memberRent[_add].bikes[id];\r\n    }\r\n    \r\n    function queryMember(address _add) public view returns(address add, string memory name,uint age,uint sex, uint id){\r\n        add = memberRent[_add].add; \r\n        name = memberRent[_add].name; \r\n        age = memberRent[_add].age;\r\n        sex = memberRent[_add].sex;\r\n        id = memberRent[_add].id;\r\n        //return(add , name, age , sex , id);\r\n    }\r\n    \r\n    function contract_balance() public view onlyOwner() returns(uint){\r\n        return address(this).balance ;\r\n    }\r\n    \r\n    function() external payable{}\r\n}\r\n\r\n",
  "sourcePath": "c:/Users/user/Desktop/Sharing Economy Carbon Rights Bikecoin/contracts/BikeCoin.sol",
  "compiler": {
    "name": "solc",
    "version": "0.5.0+commit.1d4f565a.Emscripten.clang"
  },
  "schemaVersion": "3.3.1",
  "updatedAt": "2020-11-20T03:27:50.049Z",
  "networkType": "ethereum",
  "devdoc": {
    "methods": {}
  },
  "userdoc": {
    "methods": {}
  }
}